:100000000C9465000C948D000C948D000C948D0064
:100010000C948D000C948D000C948D000C948D002C
:100020000C948D000C948D000C948D000C948D001C
:100030000C948D000C948D000C948D000C948D000C
:100040000C94950F0C948D000C94630F0C943D0F41
:100050000C948D000C948D000C948D000C948D00EC
:100060000C948D000C948D0000000008000201002B
:100070000003040700000000000000000000000072
:10008000250028002B0000000000240027002A0083
:10009000040404040404040402020202020203032E
:1000A0000303030301020408102040800102040836
:1000B00010200102040810207C3C3E5E2B3D3F2FA7
:1000C0005B5D3B2C2A225C00DF0F11241FBECFEFAB
:1000D000D8E0DEBFCDBF11E0A0E0B1E0E2E6F7E29C
:1000E00002C005900D92A634B107D9F724E0A6E42A
:1000F000B1E001C01D92A036B207E1F710E0C5E6FD
:10010000D0E004C02197FE010E945912C436D107E5
:10011000C9F70E9436100C94AF130C94000090E0C5
:10012000FC01EC55FF4F249180579F4FFC018491B7
:10013000882399F090E0880F991FFC01EA57FF4F40
:10014000A591B491FC01E458FF4F859194918FB72C
:10015000F894EC91E22BEC938FBF0895AF92BF928D
:10016000CF92DF92EF92FF920F931F93CF93DF9383
:100170006C017B018B01040F151FEB015E01AE18B2
:10018000BF08C017D10759F06991D601ED91FC91D4
:100190000190F081E02DC6010995892B79F7C50101
:1001A000DF91CF911F910F91FF90EF90DF90CF9053
:1001B000BF90AF900895FC01538D448D252F30E002
:1001C000842F90E0821B930B541710F0CF96089564
:1001D00001970895FC01918D828D981761F0A28D91
:1001E000AE0FBF2FB11D5D968C91928D9F5F9F7357
:1001F000928F90E008958FEF9FEF0895FC01918D0D
:10020000828D981731F0828DE80FF11D858D90E079
:1002100008958FEF9FEF0895FC01918D228D892F16
:1002200090E0805C9F4F821B91098F7399270895FE
:1002300089E593E00E940C0121E0892B09F420E07C
:10024000822F089580E090E0892B29F00E94180108
:1002500081110C9400000895FC01A48DA80FB92F02
:10026000B11DA35ABF4F2C91848D90E001968F73DE
:100270009927848FA689B7892C93A089B1898C91FD
:10028000837080648C93938D848D981306C002884C
:10029000F389E02D80818F7D80830895EF92FF9216
:1002A0000F931F93CF93DF93EC0181E0888F9B8D99
:1002B0008C8D98131AC0E889F989808185FF15C053
:1002C0009FB7F894EE89FF896083E889F989808176
:1002D0008370806480839FBF81E090E0DF91CF9145
:1002E0001F910F91FF90EF900895F62E0B8D10E067
:1002F0000F5F1F4F0F731127E02E8C8D8E110CC0D6
:100300000FB607FCFACFE889F989808185FFF5CF20
:10031000CE010E942C01F1CFEB8DEC0FFD2FF11DD2
:10032000E35AFF4FF0829FB7F8940B8FEA89FB895D
:1003300080818062CFCFCF93DF93EC01888D8823BB
:10034000B9F0AA89BB89E889F9898C9185FD03C038
:10035000808186FD0DC00FB607FCF7CF8C9185FF1D
:10036000F2CF808185FFEDCFCE010E942C01E9CF35
:10037000DF91CF91089590E0FC01E859FF4F24915F
:10038000FC01EC55FF4F3491FC01E057FF4FE49125
:10039000EE23C9F0222339F0233001F1A8F42130F3
:1003A00019F1223029F1F0E0EE0FFF1FE458FF4F62
:1003B000A591B4918FB7F894EC91611126C0309556
:1003C0003E233C938FBF08952730A9F02830C9F011
:1003D000243049F7809180008F7D03C08091800098
:1003E0008F7780938000DFCF84B58F7784BDDBCF9C
:1003F00084B58F7DFBCF8091B0008F778093B00064
:10040000D2CF8091B0008F7DF9CF3E2BDACF3FB7AE
:10041000F8948091510190915201A0915301B091B3
:10042000540126B5A89B05C02F3F19F00196A11DC8
:10043000B11D3FBFBA2FA92F982F8827BC01CD012E
:10044000620F711D811D911D42E0660F771F881F8D
:10045000991F4A95D1F708958F929F92AF92BF92BC
:10046000CF92DF92EF92FF920E9407024B015C0154
:1004700084EFC82EDD24D394E12CF12C0E940702D6
:10048000681979098A099B09683E734081059105BD
:10049000A8F321E0C21AD108E108F10888EE880E1D
:1004A00083E0981EA11CB11CC114D104E104F10425
:1004B00029F7FF90EF90DF90CF90BF90AF909F9083
:1004C0008F9008952FB7F89460914D0170914E016F
:1004D00080914F01909150012FBF08958FB7F894EC
:1004E000809147018FBF089561E0FC0184810E94E3
:1004F000BB018091460181111092460108958EBD85
:1005000000000DB407FEFDCF8EB508958FEF0C945B
:100510007F020F931F93CF93DF93EC010E9462023F
:100520008B010E9486028F3F69F00E946202601B6D
:10053000710B6C177D07A8F380E0DF91CF911F91BD
:100540000F91089581E0F9CF8CBD9DBD0895CF93A3
:10055000DF93EC0180914601811109C081E0809315
:1005600046018091F6039091F7030E94A40260E097
:100570008C81DF91CF910C94BB018F929F92AF92AF
:10058000BF92FF920F931F93CF93DF93EC01F62E50
:1005900049015A018E81882389F08F8198859C01B9
:1005A0002F5F3F4F38872F838230924018F40E948C
:1005B0008602F3CFCE010E9474021E82CE010E94F9
:1005C000A7028CE291E00E9489028F2D80640E9434
:1005D0007F0208E110E0D501C401002E04C0B695E9
:1005E000A795979587950A94D2F70E947F020850A5
:1005F0001109083F8FEF180771F785E9FF2021F0F7
:1006000028E087E8F2128FEF0E947F0210E00E943C
:1006100086028A8787FF04C01F3F11F01F5FF7CF54
:10062000DF91CF911F910F91FF90BF90AF909F905E
:100630008F900895AF92BF92CF92DF92EF92FF9288
:100640000F931F93CF93DF93EC016901C801820FD1
:10065000931F8130924050F58E81882379F08881F4
:100660009981AA81BB8184179507A607B70731F442
:100670008F819885C816D90608F042C048835983EF
:100680006A837B838B85833039F089E0440F551F63
:10069000661F771F8A95D1F79A01AB0161E1CE0100
:1006A0000E94BD02882389F083E08D83CE010E94E1
:1006B000740280E0DF91CF911F910F91FF90EF9036
:1006C000DF90CF90BF90AF9008950E9462025B01CF
:1006D0000E9486028A878F3F69F40E9462026A192B
:1006E0007B096D327140A0F38FE08D83CE010E94B3
:1006F0007402DCCF8E3F89F418861F8281E08E83DE
:100700008F8198858C159D0550F40E9486028F81FB
:100710009885019698878F83F3CF8DE0E6CF6701A8
:10072000E00EF11E0E948602F60181936F01EE1524
:10073000FF05C1F78F819885080F191F18870F8350
:100740008985882319F001151240A0F08E81882335
:1007500089F08F8198859C012F5F3F4F38872F83C9
:100760008230924018F40E948602F3CFCE010E949C
:1007700074021E8281E09ECFCF92DF92EF92FF92B1
:100780000F93CF93DF93EC01690182E1411551058D
:100790006105710599F08B85833039F089E0440F4C
:1007A000551F661F771F8A95D1F79A01AB0168E143
:1007B000CE010E94BD02882319F084E08D832DC0F4
:1007C0008EEF0E947F0276018EEFD81AF701819199
:1007D0007F010E947F02EC14FD04C1F78FEF0E949D
:1007E0007F028FEF0E947F020E9486028A878F71AC
:1007F000853071F4011116C0CE010E94740281E0AF
:10080000DF91CF910F91FF90EF90DF90CF900895FF
:1008100081E18D83CE010E947402CE010E94740298
:1008200080E0EECF88E592E00E948902811102C04B
:1008300085E1C4CF20E030E0A9016DE0CE010E9447
:10084000BD02882311F084E1B9CF0E948602811194
:10085000FACFD2CF0F934091480150914901609156
:100860004A0170914B01411551056105710599F0DF
:10087000082F29E531E080915601909157010E949F
:10088000BC03882349F0109248011092490110924C
:100890004A0110924B0181E00F9108950F93CF937D
:1008A000C82F80915801811105C0C1E08C2FCF91D4
:1008B0000F91089540910001509101016091020152
:1008C000709103010C2F29E531E080915601909140
:1008D00057010E94BC03811102C0C0E0E7CFCC23C6
:1008E00021F381E00E942A048823B9F31092580171
:1008F000DDCF8F929F92AF92BF92EF92FF920F93B4
:100900001F93CF934B015C01C42F80910001909104
:100910000101A0910201B091030188159905AA0572
:10092000BB0551F181E00E944E0481110BC080E0B3
:10093000CF911F910F91FF90EF90BF90AF909F903C
:100940008F90089589E5E82E81E0F82E00E012E00E
:1009500030E020E0B501A40180915601909157014B
:100960000E941A03882319F38092000190920101DA
:10097000A0920201B0920301409158014C2B409388
:10098000580181E0D5CF8F929F92AF92BF92CF92C4
:10099000DF92EF92FF92CF9328EF33E0309357012D
:1009A00020935601882309F46DC040E060E070E0B8
:1009B000CB010E94790481110BC080E0CF91FF90A0
:1009C000EF90DF90CF90BF90AF909F908F90089561
:1009D000809117038F7789F78091230390912403E7
:1009E000A0912503B091260384369105A105B10598
:1009F00020F3C0901F03D0902003E0902103F090DB
:100A00002203C114D104E104F104B9F240E0C701AA
:100A1000B6010E947904882381F28091640190914B
:100A200065018115924049F6A0916901AA2329F236
:100A300060916701709168016115710509F4BDCF7E
:100A400020916601222309F4B8CFA09316042093C5
:100A5000080490E080E030E0E1E0F0E0C82FAF0172
:100A6000082E02C0440F551F0A94E2F724173507D9
:100A700069F041E0480F01968930910579F740937C
:100A800011049BCFC12CD12C7601C0CF80931104CF
:100A900020916F013091700150E040E02115310547
:100AA00041F420917D0130917E0140917F01509170
:100AB00080012093090430930A0440930B0450935F
:100AC0000C0446015701860E971EA11CB11C809292
:100AD000170490921804A0921904B0921A04E0919D
:100AE0006A01F0916B01F0931D04E0931C04B0E0E7
:100AF0000E944E12DC01CB01880D991DAA1DBB1D61
:100B000080931E0490931F04A0932004B0932104AB
:100B100025E0EE0FFF1F2A95E1F7E150FE4FEF2F82
:100B2000FF27E6958E0F9F1FA11DB11D8093120414
:100B300090931304A0931404B093150480906C0157
:100B400090906D01B12CA12C8114910441F48090FE
:100B5000790190907A01A0907B01B0907C01C81A35
:100B6000D90AEA0AFB0AC80CD91CEA1CFB1C04C0FF
:100B7000F694E794D794C794CA95D2F7C0920D041F
:100B8000D0920E04E0920F04F092100485EFC81684
:100B90008FE0D806E104F10428F48CE080931B0474
:100BA00081E00CCF80E125EFC2162FEFD206E104E1
:100BB000F104A0F38091850190918601A0918701B5
:100BC000B091880180931E0490931F04A093200489
:100BD000B093210480E2E2CF4F925F926F927F92B6
:100BE0008F929F92AF92BF92CF92DF92EF92FF923D
:100BF0000F931F93CF93DF93EC01423051056105B2
:100C0000710590F480E0DF91CF911F910F91FF90DB
:100C1000EF90DF90CF90BF90AF909F908F907F909C
:100C20006F905F904F90089589859A85AB85BC85BC
:100C30000196A11DB11D84179507A607B70710F3EC
:100C4000CB88DC88ED88FE888F89803109F042C02E
:100C5000BB27A72F962F852F480159012A013B0159
:100C6000C80ED91EEA1EFB1E809100019091010161
:100C7000A0910201B0910301C816D906EA06FB064D
:100C800099F58F898031C1F5B301A20155276627F7
:100C90007727440F551F475A5E4FFA019182808291
:100CA000809158018160809358018A89823080F058
:100CB0008D819E81AF81B8858C0D9D1DAE1DBF1DA0
:100CC0008093480190934901A0934A01B0934B014E
:100CD00081E099CFDB01CA01E7E0B695A79597952A
:100CE0008795EA95D1F7B8CF40E0C701B6010E94D9
:100CF00079048111C6CF86CFB301A2014F77552762
:100D000066277727440F551F440F551F475A5E4FDC
:100D1000FA0180829182A282B382C2CF8F929F9287
:100D2000AF92BF92CF92DF92EF92FF920F931F93F9
:100D3000CF93DF93FC0181859285A385B4850196CD
:100D4000A11DB11D84179507A607B70770F480E0B1
:100D5000DF91CF911F910F91FF90EF90DF90CF9097
:100D6000BF90AF909F908F90089583889488A588B6
:100D7000B6888789803189F5BB27A72F962F852FC5
:100D8000E9016A017B018F01BC01CD01680D791D6C
:100D90008A1D9B1D8090000190900101A09002018E
:100DA000B090030186169706A806B90601F5F8016A
:100DB0008789803111F5DD24EE24FF24F601EE0F42
:100DC000FF1FE75AFE4F80819181B0E0A0E0888349
:100DD0009983AA83BB8381E0BBCFDB01CA01C7E053
:100DE000B695A79597958795CA95D1F7C9CF40E055
:100DF0000E9479048111DBCFAACFE894C7F8DD24E3
:100E0000EE24FF24F601EE0FFF1FEE0FFF1FE75A3F
:100E1000FE4F80819181A281B381BF70D8CF4F9264
:100E20005F926F927F92AF92BF92CF92DF92EF92DA
:100E3000FF920F931F93CF93DF9300D000D0CDB7D5
:100E4000DEB78C0149835A836B837C835901C12CA3
:100E5000D12C7601412C82E0582E612C712C4981D5
:100E60005A816B817C819E012F5F3F4FC8010E9498
:100E70008E06882339F1F8018585A301920104C00B
:100E8000220F331F441F551F8A95D2F7DA01C9017B
:100E9000C80ED91EEA1EFB1E49815A816B817C81D6
:100EA0008789803111F188EF9FEFAFEFBFE04817DE
:100EB00059076A077B0798F2F501C082D182E28266
:100EC000F38281E00F900F900F900F90DF91CF9100
:100ED0001F910F91FF90EF90DF90CF90BF90AF9058
:100EE0007F906F905F904F90089588EF9FEFA0E004
:100EF000B0E0DDCFCF93DF93FC012581222321F0E9
:100F000080E0DF91CF910895EC0180911B04803146
:100F100059F582E08583178A108E118E128E80918A
:100F20001C0490911D04B0E0A0E025E0880F991FFB
:100F3000AA1FBB1F2A95D1F7838B948BA58BB68BE9
:100F400084E094E09C8F8B8F81E08C831E821F82D3
:100F5000188619861A861B861C861D861E861F8685
:100F6000188A198A1A8ACDCF803251F683E0858398
:100F700040911E0450911F0460912004709121043F
:100F8000478B508F618F728F9F012D5E3F4F84E0A2
:100F900094E00E940F078111D3CFB2CF8F929F921E
:100FA000AF92BF92CF92DF92EF92FF920F931F9377
:100FB000CF93DF93EC018D8181110EC080E0DF9132
:100FC000CF911F910F91FF90EF90DF90CF90BF9046
:100FD000AF909F908F9008950B891C892D893E8931
:100FE000041715072607370748F34A015B018230CB
:100FF00031F48A869B86AC86BD8681E0E0CF811481
:101000009104A104B10449F41E821F821886198636
:101010001A861B861C861D86F0CF0A851B852C85AB
:101020003D85EB8DFC8D858590E00996B901A80181
:101030004150510961097109082E04C076956795E0
:10104000579547950A94D2F775016401E1E0CE1AED
:10105000D108E108F10804C0F694E794D794C79446
:101060008A95D2F7C416D506E606F70620F0012BBE
:10107000022B032B11F58F89988DA98DBA8D8E8344
:101080009F83A887B9878E010A5F1F4FC114D104BF
:10109000E104F10409F4ADCF4E815F816885798563
:1010A00098018B8D9C8D0E948E0691E0C91AD10803
:1010B000E108F1088111EACF81CFC41AD50AE60A06
:1010C000F70AE1CF3F924F925F926F927F928F9299
:1010D0009F92AF92BF92CF92DF92EF92FF920F93C7
:1010E0001F93CF93DF93CDB7DEB72C970FB6F8944D
:1010F000DEBF0FBECDBF5C01DC015B968D909C9086
:101100005C9716964D905D906D907C901997411468
:1011100051046104710409F468C0BFEF4B1A5B0A03
:101120006B0A7B0A312CF40181859285A385B485F5
:101130009C01AD012F5F3F4F4F4F5F4F29873A878B
:101140004B875C87730162011D821E821F82188695
:10115000F40181859285A385B4852D813E814F81DF
:101160005885281739074A075B0708F056C0898554
:101170009A85AB85BC858C159D05AE05BF0550F4E1
:1011800082E0C82ED12CE12CF12C92E0492E512C7A
:10119000612C712C9E012F5F3F4FB701A601C40146
:1011A0000E948E068823C9F189819A81AB81BC8116
:1011B000892B8A2B8B2B09F1260137019FEF491AC6
:1011C000590A690A790A2D813E814F8158852F5F1E
:1011D0003F4F4F4F5F4F2D833E834F8358873FEFE5
:1011E000C31AD30AE30AF30AB3CFF4014080518053
:1011F000628073803324339496CFC414D504E604FC
:10120000F70409F70FEF1FEF2FEF3FE0B701A6013B
:10121000C4010E94EC05811119C080E02C960FB624
:10122000F894DEBF0FBECDBFDF91CF911F910F911C
:10123000FF90EF90DF90CF90BF90AF909F908F90F6
:101240007F906F905F904F903F900895D5011696D4
:101250004D915D916D917C911997411551056105F5
:10126000710539F097018601C4010E94EC058823BD
:10127000A1F2D5011696CD92DD92ED92FC921997CE
:10128000332051F0D701C6010196A11DB11DF40113
:1012900080839183A283B383F5018789908DA18D8B
:1012A000B28D892B8A2B8B2B39F48481C78AD08EFF
:1012B000E18EF28E80688483F5018481806284836C
:1012C00081E0ACCF1F93CF93DF93FC0125812223D4
:1012D000D1F1162FEC01848187FF2AC066857785BE
:1012E0008089918941E00E947904882361F1EA892B
:1012F00080E2E89FF0011124E75AFE4F309719F180
:101300008D81823040F48B899C89AD89BE89848F20
:10131000958FA68FB78F8F89988D938F828F8F89A6
:10132000988DA98DBA8DB58BA48B8C818F778C838A
:10133000111103C08C818F7E8C83812FDF91CF911F
:101340001F910C944E0480E0DF91CF911F9108957E
:10135000FF920F931F93CF93DF93EC018D81813028
:1013600041F090E080E0DF91CF911F910F91FF90CD
:1013700008958C8181FFF5CF82FD1BC0009156013D
:1013800010915701C8010E94A7020E948602F82E00
:10139000C8010E9474028FEFF812E3CF8C8185FFA1
:1013A0001BC060E0CE010E9462098C818F7D8C831E
:1013B000D8CF4B895C896D897E898A859B85AC8570
:1013C000BD8584179507A607B707C1F2CE010E9415
:1013D000CE078111D3CFC5CF40914801509149012B
:1013E00060914A0170914B01452B462B472B21F010
:1013F00080E00E942A04B5CF80618C832A853B85DA
:10140000317080E092E0821B930BADCFCF93DF93DE
:10141000EC0161E00E946209882311F01D8281E0E5
:10142000DF91CF9108952F923F924F925F926F92EA
:101430007F928F929F92AF92BF92CF92DF92EF9264
:10144000FF920F931F93CF93DF9300D000D01F9292
:10145000CDB7DEB77C015B01342E5D83DC011596D0
:101460008C911597813009F0CEC014962C9021FEF6
:10147000CAC022FCB4C0C32CDD8022947FE02722A6
:101480002094B22DB1702B2ED7011A964D915D91FB
:101490006D917C911D97C114D10409F428C15B960C
:1014A0008D919C915C97FC0174807A948A019B01D8
:1014B00069E036952795179507956A95D1F77022BB
:1014C0008A011170711020C001151105E9F41696FA
:1014D0004D915D916D917C91199741155105610573
:1014E000710509F099C057968D919D910D90BC9111
:1014F000A02D0097A105B10509F0B0C0C7010E9459
:101500006208882309F47FC080E092E0801B910B81
:1015100046018C159D0508F44C01D7015B964D9151
:101520005C915C9716968D919D910D90BC91A02D2C
:101530000297A109B109FA01258504C0880F991FF6
:10154000AA1FBB1F2A95D2F74685578560897189E6
:10155000840F951FA61FB71F9C01AD01270D311DDC
:10156000411D511D29013A01811432E0930609F011
:101570007BC08091000190910101A0910201B09186
:10158000030184159505A605B70559F48FEF9FEF64
:10159000DC018093000190930101A0930201B093BC
:1015A0000301022D9501B301A20180915601909192
:1015B00057010E94BC03882331F19EEFB91AC81865
:1015C000D908F70182859385A485B585880D991D75
:1015D000A11DB11D82879387A487B58755CFF701D9
:1015E000438954896589768982859385A485B585E3
:1015F000481759076A077B0709F43DCFC7010E94C6
:10160000CE07811138CF81E090E0D70113969C93EB
:101610008E93129780E007C09E012F5F3F4F0E947C
:101620008E06811102C090E079C089819A81AB81D8
:10163000BC81F701238D348DF901278948EF5FEFD5
:1016400060E070E0203121F048EF5FEF6FEF7FE066
:1016500084179507A607B70708F050CFF7018683D0
:101660009783A087B18750CF0115110599F5D70150
:101670001A964D915D916D917C911D9753968D9128
:101680009D910D90BC91A02D481759076A077B07C3
:1016900008F181E00E944E04882309F4B4CF4092FF
:1016A0000001509201016092020170920301809149
:1016B0005801816080935801C801875A9E4FD50117
:1016C0009C01280D391DFC012E173F0759F04D9143
:1016D0004193FACF41E0C301B2010E947904811124
:1016E000EBCF91CF281B390BA20EB31E68CFF701A9
:1016F00083899489A589B68984179507A607B707B2
:1017000038F48481438B548B658B768B806884831B
:10171000F701848183FD1AC0832D9D810F900F9066
:101720000F900F900F90DF91CF911F910F91FF902D
:10173000EF90DF90CF90BF90AF909F908F907F9071
:101740006F905F904F903F902F90089561E0C70198
:101750000E946209882309F456CFDECFCF93DF932E
:101760001F92CDB7DEB7698341E050E0BE016F5FE5
:101770007F4F0E94130A0F90DF91CF910895FC01D3
:10178000DB0112968D919C9113979383828380E263
:1017900091E09183808314968C911497848315969D
:1017A0008C911597858316964D915D916D917C91E5
:1017B000199746835783608771871A964D915D917B
:1017C0006D917C911D9742875387648775871E961C
:1017D0004D915D916D917C91519746875787608BB4
:1017E000718B52968C915297828B53964D915D914D
:1017F0006D917C915697438B548B658B768B579666
:101800004D915D916D917C915A97478B508F618F6F
:10181000728F5B968D919C91948F838F089508951C
:10182000FC01818D928D009719F061E00C946209A2
:101830000895DC015996ED91FC913097B9F08389B8
:101840009489A589B6894285538564857585841BED
:10185000950BA60BB70B811520E89207A105B105E2
:1018600038F08FEF9FE7A0E0B0E0089590E080E0CF
:101870000895DC0159968D919C91009739F0DC0117
:10188000ED91FC910480F581E02D099490E080E0D9
:101890000895CF93DF93EC01E98DFA8D309749F4E9
:1018A00081E090E09B838A8390E080E0DF91CF919C
:1018B000089513821282898D9A8D0E94130AE98DF0
:1018C000FA8D22813381232B59F7F0CFCF93DF9309
:1018D0001F92CDB7DEB76983DC01ED91FC910280E8
:1018E000F381E02D41E050E0BE016F5F7F4F09952D
:1018F0000F90DF91CF9108952F923F924F925F9278
:101900006F927F928F929F92AF92BF92CF92DF920F
:10191000EF92FF920F931F93CF93DF9300D01F920C
:10192000CDB7DEB7FC018581811118C08FEF9FEF25
:101930000F900F900F90DF91CF911F910F91FF901B
:10194000EF90DF90CF90BF90AF909F908F907F905F
:101950006F905F904F903F902F900895848180FF0B
:10196000E5CF438954896589768982859385A485E5
:10197000B585312C212C481759076A077B0719F0C8
:1019800022242394312C6F012101CE0101963C01C8
:10199000DF011696BB83AA834114510409F4C5C024
:1019A000F60142855385648575854A01F1E09F22E1
:1019B000D6015B968D919C915C978A019B01E9E031
:1019C0003695279517950795EA95D1F71596EC91D9
:1019D000E230E9F5FC01628D738D848D958D600F89
:1019E000711F821F931FA12C22E0B22EA818B908E4
:1019F0004A145B0408F45201F601248126FD04C058
:101A0000A114F2E0BF0671F40091000110910101F0
:101A100020910201309103010617170728073907A3
:101A200009F05EC040E00E947904882309F47ECF6B
:101A3000C401875A9E4FD3019C012A0D3B1DFC0116
:101A40002E173F0709F46CC041914D93F9CFDC018B
:101A50001496BC90BA94B0228114910479F4B11018
:101A60000DC0452B462B472B69F5F6018789908DD4
:101A7000A18DB28D86839783A087B187D6015B96AF
:101A8000ED91FC915C9716966D917D918D919C9155
:101A900019976250710981099109258504C0660F63
:101AA000771F881F991F2A95D2F7068517852089E9
:101AB0003189600F711F821F931F6B0D711D811D76
:101AC000911D91CFD60116964D915D916D917C91AE
:101AD00019972A813B810E948E068111CFCF26CF94
:101AE000730185019401AB01BC0180915601909175
:101AF00057010E941A03882309F418CF6A0C7B1C33
:101B0000F60182859385A485B5858A0D9B1DA11D4F
:101B1000B11D82879387A487B5874A185B083CCF9D
:101B2000281B390B620E731EEBCF2A94232809F071
:101B3000FDCE898190E0FCCEFC01818D928D0097D5
:101B400011F00C947C0C8FEF9FEF08950F931F936F
:101B5000CF93DF93EC01898D9A8D10E000E0009720
:101B600099F00E947C0C8C010F3F100769F0898D61
:101B70009A8DFC01428553856485758541505109D4
:101B8000610971090E94CE07C801DF91CF911F91B1
:101B90000F9108950F931F93CF93DF93EC0180E291
:101BA000689FF0011124E75AFE4F6A8B8091000173
:101BB00090910101A0910201B09103018E879F874E
:101BC000A88BB98B0489158930E020E09801112792
:101BD00000270F8B188F298F3A8F828D938DB0E05D
:101BE000A0E0AC01BD01402B512B622B732B4F8B1E
:101BF000588F698F7A8F83858871A9F4848D958D2C
:101C0000A68DB78D8B8B9C8BAD8BBE8B81E08D832E
:101C100081E08C831E821F82188619861A861B8695
:101C20001C861D8603C0803131F080E0DF91CF91AA
:101C30001F910F9108959E012D5E3F4F8B8D9C8DBE
:101C40000E940F07882389F384E0E1CFAF92BF920F
:101C5000CF92DF92EF92FF920F931F93CF93DF9378
:101C6000CDB7DEB72B970FB6F894DEBF0FBECDBF52
:101C70006C01FE013196CE010C967F0120E221938A
:101C8000E817F907E1F7DA0120E037E09D91B92E76
:101C90009923A9F19E32B9F43A3091F480E02B9661
:101CA0000FB6F894DEBF0FBECDBFDF91CF911F916D
:101CB0000F91FF90EF90DF90CF90BF90AF9008957D
:101CC00028E03AE0E3CFE8EBF0E08491882321F0CC
:101CD00031969813FACFE2CF321700F38FED890FC8
:101CE0008E35E0F68FE9890F8A3118F440EEB42E74
:101CF000B90EF701E20FF11DB0822F5FC7CF8981C6
:101D0000803261F28B01FB01838D948DF601948FFB
:101D1000838FFB0116821782108611861286138626
:101D200014861586F80182859385A485B585438937
:101D300054896589768984179507A607B70708F03F
:101D4000ADCF25E0B695A795979587952A95D1F7BC
:101D5000F82FFF70AF2EF8018581823008F49ECFF6
:101D6000C8010E947C0C97FD99CFF801828593856C
:101D7000A485B5854F96A11DB11D82879387A48741
:101D8000B587F0E2AF9EB0011124675A7E4F61150E
:101D9000710509F483CFFB018081882309F1853E19
:101DA00019F4B11032C01EC04BE050E0C7010E94D0
:101DB0009313892B09F0B6CF6A2DC6012B960FB667
:101DC000F894DEBF0FBECDBFDF91CF911F910F9171
:101DD000FF90EF90DF90CF90BF90AF900C94CA0D22
:101DE000B1105CCFF601A28A8091000190910101AF
:101DF000A0910201B091030186879787A08BB18BD8
:101E0000FB018081882309F449CFBB24B3948ACF96
:101E1000EF92FF920F931F93CF93DF93EC017B011F
:101E20008A011B821A8288EE93E0A0E0B0E08C83E6
:101E30009D83AE83BF838CE291E0998388838DE19B
:101E400090E00E946E129A8F898F009779F02DE1B1
:101E5000F701DC0101900D922A95E1F74CE050E08A
:101E6000B801CE010C960E94A013188EDF91CF917D
:101E70001F910F91FF90EF9008951F920F920FB650
:101E80000F9211242F933F934F935F936F937F9300
:101E90008F939F93AF93BF93EF93FF9389E593E065
:101EA0000E942C01FF91EF91BF91AF919F918F9173
:101EB0007F916F915F914F913F912F910F900FBE46
:101EC0000F901F9018951F920F920FB60F9211242A
:101ED0002F938F939F93EF93FF93E0916903F0917A
:101EE0006A038081E0916F03F091700382FD1BC053
:101EF0009081809172038F5F8F732091730382179B
:101F000041F0E0917203F0E0E75AFC4F958F809327
:101F10007203FF91EF919F918F912F910F900FBEC0
:101F20000F901F9018958081F4CF1F920F920FB6DB
:101F30000F9211242F933F938F939F93AF93BF934F
:101F400080914D0190914E01A0914F01B0915001AF
:101F500030914C0123E0230F2D3758F50196A11D38
:101F6000B11D20934C0180934D0190934E01A0939D
:101F70004F01B09350018091510190915201A09175
:101F80005301B09154010196A11DB11D80935101DF
:101F900090935201A0935301B0935401BF91AF911C
:101FA0009F918F913F912F910F900FBE0F901F9097
:101FB000189526E8230F0296A11DB11DD2CFE9E5A1
:101FC000F3E01382128288EE93E0A0E0B0E0848315
:101FD0009583A683B7832EE031E03183208325ECFF
:101FE00030E03587248724EC30E03787268720ECE3
:101FF00030E0318B208B21EC30E0338B228B22ECD4
:1020000030E0358B248B26EC30E0378B268B118E1D
:10201000128E138E148EE6EFF3E020E520831182FA
:10202000E8EFF3E0158216821186138642E050E055
:1020300060E070E0448755876687778713A215A60E
:1020400014A620E231E033A722A717A6E1E4F4E0CA
:102050001382128284839583A683B7838CE291E0F6
:1020600091838083128E118E14860895CF93DF930F
:10207000CDB7DEB7C257D1090FB6F894DEBF0FBE99
:10208000CDBF789484B5826084BD84B5816084BD01
:1020900085B5826085BD85B5816085BD80916E0006
:1020A000816080936E001092810080918100826037
:1020B0008093810080918100816080938100809174
:1020C00080008160809380008091B1008460809363
:1020D000B1008091B00081608093B00080917A005F
:1020E000846080937A0080917A00826080937A0085
:1020F00080917A00816080937A0080917A00806874
:1021000080937A001092C10088E00E948F0083E0E3
:102110000E948F0080912704882321F082E294E0BE
:102120000E94060A10920304109201041092FE030A
:102130001092FD038AE08093FC030E9462028B01EF
:102140008091FC030E948F0061E08091FC030E945B
:10215000BB01FFB6F89480915501811124C0EAE9D2
:10216000F0E08491EEEAF0E09491E82FF0E0EE0FD9
:10217000FF1FEA57FF4FA591B491EC91E92321F499
:1021800061E08AE00E94BB018AE00E948F008CB56A
:1021900080618CBD8CB580648CBD8DE00E948F0009
:1021A0008BE00E948F00809155018F5F80935501D5
:1021B000FFBE82E58093F6031092F7038091F60349
:1021C0009091F7030E94A4022AE0F22E8FEF0E9462
:1021D0007F02FA94F110FACF88EF93E00E94A702F1
:1021E00020E030E0A90160E088EF93E00E94BD02AA
:1021F000F82E8093020481E0F81699F00E946202A2
:10220000601B710B613D774058F381E08093FD03C3
:1022100088EF93E00E94740261E088E00E94BB01B5
:10222000FFCF2AEA31E040E050E068E088EF93E039
:102230000E94BD0282FF2AC0F09203048091030431
:10224000C12CD12C7601823029F4C12CD12CE12C67
:1022500080E4F82E20E030E0A90167E388EF93E006
:102260000E94BD02A701960169E288EF93E00E94F7
:10227000BD02809302048823D1F00E946202601B99
:10228000710B613D774030F388E0C0CF94E0F92EC8
:102290000E94860280930204FA94F110F9CF8A3AE0
:1022A00011F082E0B3CF82E080930304C7CF809126
:1022B00003048230D1F420E030E0A9016AE388EF22
:1022C00093E00E94BD02882311F086E09FCF0E9418
:1022D0008602807C803C19F483E0809303040E9492
:1022E00086020E9486020E94860288EF93E00E9486
:1022F000740280E58093F6031092F70381E00E9458
:10230000C304882309F483C082E294E00E947A0720
:10231000882309F481CF1C821B8200E211E01A831A
:1023200009831E82CE0101960E947A07BE016F5F6B
:102330007F4FCE01CB960E94BF0B19A218A21F8F10
:102340000E8F1BA221968FAD2197811167C06C96CD
:102350001FAE1EAE6C9788EE93E0A0E0B0E0A096B2
:102360008CAF9DAFAEAFBFAFA0978CE291E06A9605
:102370009FAF8EAF6A97E3961FAE1EAEE397A5960A
:102380001FAEA5976C968EAD9FAD6C97909344044D
:1023900080934304A0968CAD9DADAEADBFADA0972C
:1023A0008093450490934604A0934704B093480457
:1023B000A4968CAD9DADAEADBFADA49780934904FE
:1023C00090934A04A0934B04B0934C04A8E5B0E06A
:1023D000AC0FBD1F1C96EDE4F4E08D91819384E079
:1023E000EA35F807D1F7E396EEADFFADE397F0934A
:1023F0005B04E0935A04309729F0858100E010E0F7
:1024000081112EC061E083E00E94BB01FFCF80E01C
:102410000E94C304882309F4FFCE76CF4AE351E03B
:10242000BE01655C7F4FCE014E960E94260E88232A
:1024300009F48DCFCE01CB960E94060ABE01625EE2
:102440007F4FCE0101960E94BF0B4AE351E0BE01CF
:102450006F5F7F4FCE01885A9F4F0E94080F92CF27
:1024600061E088E00E94BB0161E083E00E94BB0163
:102470000E942C0260E088E00E94BB0160E083E0E3
:102480000E94BB010E942C020115110549F30E9414
:102490001801882329F30E940000E2CF0E945F12F6
:1024A000A59F900DB49F900DA49F800D911D1124A8
:1024B0000895EE0FFF1F0590F491E02D0994A29F5F
:1024C000B001B39FC001A39F700D811D1124911D08
:1024D000B29F700D811D1124911D08950F931F93BC
:1024E000CF93DF938230910510F482E090E0E09189
:1024F0005E04F0915F0430E020E0B0E0A0E03097AF
:1025000099F42115310509F44AC0281B390B2430F0
:102510003105D8F58A819B816115710589F1FB012F
:1025200093838283FE0111C0408151810281138116
:1025300048175907E0F04817590799F4109761F0C8
:1025400012960C93129713961C933296CF01DF913B
:10255000CF911F910F91089500935E0410935F0433
:10256000F4CF2115310551F04217530738F0A90176
:10257000DB019A01BD01DF01F801C1CFEF01F9CF05
:1025800090935F0480935E04CDCFFE01E20FF31FB2
:10259000819391932250310939832883D7CF209199
:1025A0005C0430915D04232B41F4209106013091AD
:1025B000070130935D0420935C0420910401309165
:1025C00005012115310541F42DB73EB740910801B1
:1025D00050910901241B350BE0915C04F0915D04DE
:1025E000E217F307A0F42E1B3F0B2817390778F0EA
:1025F000AC014E5F5F4F2417350748F04E0F5F1F49
:1026000050935D0440935C04819391939FCFF0E0DD
:10261000E0E09CCFCF93DF930097E9F0FC01329785
:1026200013821282A0915E04B0915F04ED0130E04C
:1026300020E01097A1F420813181820F931F209117
:102640005C0430915D042817390709F061C0F093EC
:102650005D04E0935C04DF91CF910895EA01CE1709
:10266000DF07E8F54A815B819E0141155105B1F70D
:10267000E901FB83EA8349915991C40FD51FEC17F7
:10268000FD0761F4808191810296840F951FE90115
:1026900099838883828193819B838A83F0E0E0E041
:1026A00012968D919C9113970097B9F52D913C91BD
:1026B0001197CD010296820F931F20915C043091F7
:1026C0005D042817390739F6309751F510925F04E9
:1026D00010925E04B0935D04A0935C04BCCFD383DE
:1026E000C28340815181840F951FC817D90761F4B7
:1026F0004E5F5F4F88819981480F591F51834083F6
:102700008A819B81938382832115310509F0B0CFA3
:10271000F0935F04E0935E049ECFFD01DC01C0CF27
:1027200013821282D7CFFB01DC0104C08D9101908E
:10273000801921F441505040C8F7881B990B089527
:10274000FB01DC014150504048F001900D92002007
:10275000C9F701C01D9241505040E0F70895F89428
:02276000FFCFA9
:10276200FFFFFFFF000060048000000000004E0138
:10277200AE00DB009B010C01EA00FE00000000003D
:10278200AE0BAE00A8090F0C00000000660C490C4D
:10279200390C100C190C9C0DA60D62726F777365C3
:0627A200722E7072670048
:00000001FF
